:1020000000800020792700005B2700007527000072
:1020100000000000000000000000000000000000C0
:102020000000000000000000000000005B2700002E
:1020300000000000000000005B270000CD2700002A
:102040005B2700005B2700005B270000E9400000E1
:102050005B2700005B270000612700005B27000072
:102060005B2700005B270000255700003557000064
:1020700015570000ED5600005B2700005B270000AD
:102080005B2700005B2700005B2700005B27000048
:102090005B2700005B2700005B2700005B27000038
:1020A0005B2700005B2700005B2700005B27000028
:1020B0000000000010B5064C2378002B07D1054B1B
:1020C000002B02D0044800E000BF0123237010BDA4
:1020D000100300200000000024240100084B10B56C
:1020E000002B03D00749084800E000BF07480368F9
:1020F000002B00D110BD064B002BFBD09847F9E711
:10210000000000001403002024240100000300202C
:102110000000000010B502F097FE034B186002F0BB
:102120009DFE024B186010BD300300202C030020E0
:10213000012210B5034B044907201A7002F0CEFCAF
:1021400010BDC04635030020C802010070B506204E
:1021500002F04EF9042213490500062001F024FF85
:1021600003F09AF9104B114C1B689D4202D000F00D
:102170003BFB206000F038FB2368C01A0C4B1B6847
:1021800098420DD90B4C2378012B09D10A4907201D
:1021900002F0A4FC094B187802F0B8FE002323706B
:1021A00070BDC04631210000400300203C030020E8
:1021B0000400002035030020D80201003403002071
:1021C00010B502F0F3FB014B186010BD380300207E
:1021D0001FB5E1212148490200F024FF9621204843
:1021E000C90100F0F1FC002003F088F8012114205F
:1021F00002F0A6F80121132002F0A2F8012110201C
:1022000002F09EF80121112002F09AF8002114201A
:1022100002F09AF80021132002F096F8022106201D
:1022200002F08EF802F01AFE0E4C206002F00CFE56
:102230000D4B0E4A186023680D4902930123019348
:102240000C4B0D4800930D4B02F00EFE0C4B18701A
:1022500002F052FE00220B4B1A701FBD5C050020DD
:10226000F414002044030020480300200927000044
:102270005923000091220000EA02010041270000DA
:102280003403002035030020002070477047000011
:1022900010B50B4904000BF082F8002803D143224B
:1022A000084B1A7010BD084920000BF078F80300A5
:1022B0000120002BF6D14621024A18001170F1E7E7
:1022C0006F0301004C0300207503010030B5174B6C
:1022D0008FB01A7F050001A80271154A05A9019265
:1022E0001A6A5B6A8260C36002F0ADF90A9C211C25
:1022F000201C07F04DFE002800D00E4C0E4B1B7822
:102300005BB2462B0DD1201C09F0B8FC0B4A0C4BDC
:1023100008F050FE09F004FD8421C90507F0DEFA3B
:10232000041C00202C600FB030BDC04658030020B4
:10233000380501000000C8424C030020CDCCCCCCB5
:10234000CCCCFC3F0122034B00201A7192185A702A
:102350007047C0464C030020F0B546220026334BA0
:1023600091B01A705E70FFF7EDFF314C200002F063
:10237000BFF9304802F070FC237F02AA13712E4B84
:1023800010000293236A06A90493636A01930593DC
:1023900002F0E2F9294C200002F05EFC284F3800E0
:1023A00002F05AFC274802F041FC06A802F054FC57
:1023B000254802F03BFC099802F064FC200002F082
:1023C0004BFC224802F032FC0A9802F05BFC200031
:1023D00002F042FC1E4802F029FC0C9807F0F0FDC8
:1023E00002F050FC1B4D280002F036FC1A4802F0A7
:1023F0001DFC0D9807F0E4FD02F044FC280002F0FB
:102400002BFC164802F012FC0E9807F0D9FD02F0E2
:1024100039FC280002F020FC380002F01DFC2000EE
:1024200002F01AFC300011B0F0BDC0464C03002091
:10243000580300207B0301003805010077040100E8
:1024400095030100BA030100C9030100D80301008C
:10245000E7030100F6030100F9030100080401008D
:10246000012313B5074C5B42019300930B22073302
:102470000021200002F024F9034A0449200007F05B
:102480002DF813BD58030020000000208D2200000D
:1024900070B504000121142001F056FF0121132022
:1024A00001F052FF2600642000F0D4F908360B4DED
:1024B00021782800013400F045FCB442F7D128000F
:1024C00000F09DFB0021142001F03EFF00211320AD
:1024D00001F03AFF322000F0BDF970BDF414002085
:1024E000F7B505000C001020012101F02DFF00219F
:1024F000112001F029FF374800F0ACF92800FFF760
:10250000C7FF354F380000F075FB00285ED0334D13
:10251000380000F085FB0A2802D0013D002DF7D1DC
:102520000A2326002370A51C2E36380000F078FB05
:1025300028700235B542F8D1294D2A49280000F00B
:1025400039FA294929480AF034FF23002C33019332
:10255000274E2278274930000AF0F2FE3100234846
:102560000AF010FF019B0234A342F1D1224C1A78E9
:10257000210030000AF0E4FE31001C480AF002FF9E
:102580001A49280000F016FA019B21001A78300041
:102590000AF0D6FE280000F0F1F91849280000F0F2
:1025A00009FA380000F02BFB2800154900F002FA68
:1025B000FA20800000F04EF90021102001F0C4FE46
:1025C0000121112001F0C0FE0848FEBD0D4904485C
:1025D000ECE7C04688130000F4140020E903000073
:1025E0005C0500203204010077040100D0040020C3
:1025F000900300203D040100410401004504010056
:102600004E04010061040100F0B5E9B0019002F050
:102610001BFC040002F022FC07220090304948A86D
:1026200009F09DFD202002ABFF30C0187922002167
:1026300009F0B0FD2B4F28A839000AF0BAFE390086
:1026400008A80AF0B6FE284800F0D9FA2749284819
:10265000FFF746FF010048A80AF0ABFE02F0A6F91A
:102660000600244D0200290003A80AF069FE32008A
:10267000290028A80AF064FE48A928A80AF082FECA
:1026800028A908A80AF095FE2000009906F0C2FFCC
:10269000194E01383568194CA84203DD184B1B68E8
:1026A000012B15D108A920000AF06CFE2100019829
:1026B0000AF07FFE0023134907202200336002F056
:1026C0000DFA390020000AF074FE002069B0F0BD58
:1026D000013508A9200035600AF054FEF5E7C04630
:1026E000EF02010077040100F414002090040020A0
:1026F00008000020170401005403002010040020EB
:10270000CC0400201B040100002370B5A2B0060019
:1027100001A80D000193FFF7D9FD041E0DD101A9F9
:1027200002A8FFF771FF041E07D102A930000AF0CA
:1027300040FE02A80AF045FE2870200022B070BDBD
:1027400070B50E0000210400FFF75EFF05002000B9
:102750000AF037FE3070280070BD03BEFEE70000AF
:10276000034B10B51B68002B00D0984710BDC04626
:10277000500500200DBEFEE770B50F490F4CA14279
:1027800004D100F0ABF900F0A3F8FEE70C4D0023F4
:102790008D42F6D0CA18E818A24205D39042F0D074
:1027A000084B0949002204E0006804331060F1E797
:1027B00004C38B42FCD3E4E7000000201003002098
:1027C0008C24010010030020E022002010B500F04E
:1027D0007CF8002801D100F063F810BD014B1860AF
:1027E0007047C04650050020014B18687047C0462E
:1027F00054050020F7B51348012284461249134CB2
:102800008E68636805689B0E134001928868626851
:10281000019F920E3A4067463F6893420ED1BD42F7
:102820000CD186420AD35B19FA254868AD00861B95
:1028300007486B437043000DC018FEBD3D001300F8
:102840000600E3E75405002010E000E000ED00E0A2
:1028500055550000F7B5041E1CD0EFF3108372B677
:102860000D4E0E4F35683A680192DB0700D462B610
:10287000EB439C4204D964190025019B0133019369
:1028800000F022F83B68019A9342F9D333685B1B4E
:102890009C42F5D8F7BDC0465405002058050020DD
:1028A000074B10B51A6801321A601B68002B03D160
:1028B000044A13680133136000F0EEF810BDC046FF
:1028C00054050020580500207047002070477047CD
:1028D00010B501F027FC09F0D7FBFFF7F8FF012046
:1028E000FFF7B8FF084C200000F006FE200000F0C3
:1028F00063FEFFF76DFCFFF729FC044B002BFAD0B9
:1029000000E000BFF7E7C0467805002000000000A7
:10291000F7B506000D000C008B180193019B671B97
:102920009C4207D0336821781B68300098470134F7
:102930000028F3D13800FEBD70B505000C00081E5C
:1029400007D00AF03EFD2B6802005B6821002800DA
:10295000984770BD10B5FFF7EFFF10BD10B50368C5
:102960008A685B680968984710BD10B5FFF7E4FFF7
:1029700010BD10B503681B68984710BD10B502491B
:10298000FFF7DAFF10BDC0467504010070B5040002
:10299000FFF7D2FF05002000FFF7F0FF401970BDE0
:1029A00070B50500FFF7DAFF04002800FFF7E6FF27
:1029B000201870BD70B50400FFF7BEFF05002000B1
:1029C000FFF7DCFF401970BD70B50500FFF7D1FFC0
:1029D00004002800FFF7D2FF201870BDF0B51600E4
:1029E00000228DB002AB053301900D00DA77012E85
:1029F00000DC0A260BAC2800310006F007FE0F00B1
:102A0000CBB228003100009306F07AFDFBB23733D9
:102A10000500013CDBB2092F02D8009B3033DBB24A
:102A20002370002DE7D121000198FFF785FF0DB03D
:102A3000F0BDF8B506000C00151E04D10368C9B23C
:102A40001B689847F8BDD2B20A2D0DD12A00002983
:102A50000ADA2D21FFF78DFF614207002A003000BE
:102A6000FFF7BCFF3818EDE721003000FFF7B6FF95
:102A7000E8E710B5FFF7DDFF10BD0000014B18605F
:102A80007047C046100000200122024B52421A60DB
:102A90007047C04610000020054A10B51368591C45
:102AA00005D0013B1360002B01D1024B984710BDAC
:102AB00010000020292401000249034B4A681A42F1
:102AC000FCD1704700180040FD0700000E230249AA
:102AD0000A781A42FCD17047380C00408422F8B5BD
:102AE000294B2A4D5A6040236A69022113436B61C6
:102AF00080230122DB059A719878014399709979B6
:102B00001142FCD00121224C9A71224B2270227872
:102B10000A4202D062681A42F9D11F4B1F4A5A6119
:102B2000022259690A435A610122D9681142FCD034
:102B30001B4B1C4E0227F362FFF7C8FF00231A4A03
:102B400033631370FFF7C2FF184B1F70FFF7BEFF10
:102B5000174A13783B42FCD001232B71154D256297
:102B6000FFF7AAFF2563FFF7A7FF0C22337D9343EE
:102B70001A000423134333750F4BE362FFF79CFFE6
:102B80000E4A0F4B1A60F8BD00400041000400409F
:102B900000180040FD070000001000401C04000069
:102BA000710B0000000C0040340C0040280C004069
:102BB0003C0C00400803020006010100006CDC022E
:102BC000880000200120704710B50368014A1B6A85
:102BD000984710BD1304000010B50400006902F00E
:102BE0008EFE2000143002F01FFE20005C3002F048
:102BF0001BFE10BD10B5143002F02AFE10BD10B53A
:102C0000040020005C3002F023FE0028F9D1206986
:102C100002F08AFE10BD10B55C3002F01FFE10BD40
:102C200070B5050004001435280002F001FE2300F1
:102C3000A8331B780600FF2B0AD0280002F00EFEF6
:102C40000A2805DD2300B434B0331B6822681A60FB
:102C5000300070BD10B5143002F00EFE10BD000043
:102C6000F7B51D0008AB1B780400009309AB1B7877
:102C70001600019300234360FA239B0083600E4BF0
:102C80000F0008330360143002F0B8FD20005C3000
:102C900002F0B4FD6A4623001278A43327619A70CB
:102CA0006A4612791E70DA7022005D70FF23A83226
:102CB000200013701374FEBD7804010070B5040089
:102CC000006902F03DFE002819D02500206902F0BD
:102CD0004CFE14350100280002F09BFD2300A833B0
:102CE0001B78FF2B0BD0280002F0B8FD092806DC6A
:102CF00023002200AC33B4321B6812681A602069CA
:102D000002F02EFE00280DD025005C35280002F0D0
:102D10009FFD002812D0280002F08AFDC1B2206970
:102D200002F027FE206902F010FE002805D020697D
:102D300002F00FFE206902F0FFFD70BD206902F075
:102D400024FEEFE7F8B5040000690E00250002F04C
:102D500007FE5C35002820D13F27280002F096FDB1
:102D600000282DD0EFF31083012213420CD1EFF392
:102D700005833B40F1D0103B5BB2002B17DB9B0877
:102D8000C033144A9B009B58206902F0E9FD0028DB
:102D9000E3D02000FFF792FFDFE7280002F058FDA4
:102DA0000028D9D13100206902F0E3FD0FE00F22A5
:102DB0001340083B9B08084A9B009B181B68E3E7ED
:102DC0002800310002F025FD206902F0DAFD012023
:102DD000F8BDC04600E100E01CED00E0F02001403D
:102DE0003039484248417047F0231B011940802385
:102DF00006209B0099420AD00133FF3301309942EB
:102E000005D0802302385B00994200D00020704733
:102E10000F2001400020012903D00239481E8141C2
:102E2000481C70470300F0B50400A43385B018783F
:102E30000F000E21150001F0F1FA2300A5331878D8
:102E40000E2101F0EBFA2300A73303931B78022B2A
:102E500007D12300B8331878FF2802D00E2101F0E3
:102E6000DDFA2600A8363078FF281AD0012101F0BB
:102E700067FA0C2133781F4A594320008B5C5218A3
:102E8000517801221C4EDB01AC309E1906601B48B4
:102E90008A401B1821002000B431B03003600A6062
:102EA0001A6001223B001100206902F07DFE29001A
:102EB0002000FFF799FF290006002000FFF7A8FF78
:102EC000290007002000FFF789FF3B000090310038
:102ED0002069012202F0E7FC2300A6331A78039B45
:102EE0002069197802F0F9FC206902F014FD05B0A0
:102EF000F0BDC046A007010018280040142800407B
:102F00003F20704713B56B460268D9710733546888
:102F100019000122A04716BD10B50221006900F07A
:102F200031FC10BD10B50321006900F041FC10BD5B
:102F300010B5130004000A000069032100F032FDFF
:102F4000002801D10123636010BD000010B5054CBD
:102F500023685A1C04D103685B699847030020600A
:102F6000180010BD5C000020074B0200186810B567
:102F7000411C03D0012252421A6010BD0221106987
:102F800000F002FDF9E7C0465C00002010B50378B0
:102F90003A22023303700249024800F0AFFD10BD2F
:102FA000200000207805002010B501780300427849
:102FB0000020A12908D1212A05D11A3A164917481B
:102FC00000F09CFD012010BD2129FCD1202A11D147
:102FD000193A1149114800F02FFC96220E4BD200ED
:102FE0001968914203D10124D87904400ED0FFF72B
:102FF0004BFD0EE0222A03D19A78074BDA71ECE7F9
:10300000232AE0D15A88064B1A60DCE7FA20FFF742
:1030100035FD0020D7E7C0461800002078050020C5
:10302000140000207047000010B5FFF7DDFBF4230B
:10303000FF330024984207D9044B0A20DC79631E31
:103040009C41E4B2FFF706FC200010BD18000020F0
:10305000FA220021054B92009A60054A5960083215
:103060001A60044A19761A617047C0465C05002050
:10307000AC0401007805002030B50F25CB1D0139C7
:1030800002002A40140000093034092A01DD3732D9
:1030900014001C70013B8B42F2D130BD70B5822907
:1030A0001FD1C3B22C4D5A01AA1891692B4C800133
:1030B0000C40C02189052143916129490833081832
:1030C000802150612A685B01D0180479494221436C
:1030D00001717020995C81430800302101439954AB
:1030E00070BD0029FCD1C024C1B21B4E4B01F318A6
:1030F0009A681A4DA4052A4022439A60194A800111
:1031000010180A0058603068072608325201115C16
:10311000B1430E0001213143115499690D402C43F4
:103120009C6170240E495961115CA1430C0010216F
:103130002143115499680C4C82180C40802149039A
:10314000214399609968890B8903996040235179DB
:103150000B435371C4E7C046300A0020FFFFFF8FC6
:10316000A405002064070020FF3F00F070B50400B4
:10317000012320CC00212A782000134380222B70C9
:10318000520009F007F8AB78DB07FCD46C6270BD25
:103190001F22144B70B51B68590B9C0C9B011140EE
:1031A0005B0F22401F2900D11A391F2A00D1023A91
:1031B000072B00D1043B1F2500688E01048D0A49AE
:1031C0002A40214031430185018D14000A00AA43A1
:1031D00022430285028D1903044B13400B430385E0
:1031E00070BDC046206080003FF8FFFFFF8FFFFFEB
:1031F000EFF3108303600123436072B670470368E6
:10320000002B02D162B6BFF36F8F704737B50569E7
:1032100004006846002D14D1FFF7EAFF019B621DF0
:10322000013B02D3D57FEDB2FAE768460193FFF781
:10323000E6FF002D01D100203EBD206AE369C01ADF
:10324000FAE7FFF7D5FF22000025019B3432013B4E
:1032500002D31578EDB2FAE768460193FFF7CFFF86
:10326000002DE8D0206BE36AE9E70000F0B5012506
:103270004668037A31685A018C18FF34A77AB2186D
:103280003D43A572C468094D9068A40428402409F0
:103290002043906090680833800B80039060402248
:1032A0005B01CB1819790A431A71F0BDFF3F00F09A
:1032B000F7B5036904000E0017006846002B3DD1E6
:1032C000FFF796FF019B611D013B5A1C0CD0CD7F7F
:1032D0005A1EEDB2002D05D168460193FFF78FFF0E
:1032E0002800FEBD1300F0E7684601930025FFF7B4
:1032F00086FFE369AF4202D0226A934257D3226A23
:103300009342EDD10023E361013323616846FFF767
:103310006FFF22000021019B671D013B3532581CC5
:10332000DAD0F97710785E1E002805D011702000E1
:103330000193FFF79BFFECE73300F0E7FFF758FF3F
:103340002100019B3431013B5A1C06D00D785A1ED6
:10335000EDB2002DC0D01300F6E7684601930025BA
:10336000FFF74DFFE36ABD4202D0226B934226D3A2
:10337000226B9342B4D100236846E3622361FFF7D6
:1033800037FF270022000021019B3437013B3532F3
:10339000581CA1D0397010785E1E002805D011701D
:1033A00020000193FFF762FFEBE73300F0E75A1CC0
:1033B000E261A269D3181B787355013599E75A1C4D
:1033C000E262A26AD3181B7873550135CAE7F7B5D4
:1033D000027A436811000400083118684901411855
:1033E000C879C00727D501255201CD719B189A686D
:1033F00061699204920C002921D12262226A002A7A
:103400003ED0A26A656168465A60FFF7F1FE270068
:103410002100019B661D013B343735315A1C2BD0EE
:10342000F5773A78581ED2B2002A05D00193684643
:103430000D70FFF7E4FEF7BD0A700300EEE72263AC
:10344000226B002A1CD000226261A26968465A6081
:10345000FFF7CEFE26002100019B3436013B671D9D
:1034600035315A1C08D03570FA7F581ED2B2002A66
:10347000DCD10A700300F4E768460193FFF7BFFE52
:103480002000FFF7F3FED6E737B56B46DC1D0023BF
:103490000D0020002370FFF779FD2B6818182860B5
:1034A00002F024FC210002F0DDFB2B6818182860D4
:1034B00020783EBD03290ED180220E4B62311B685D
:1034C000FF31585C524202435A5468226339FF3933
:1034D000FF32995470470129FCD18022054B2431D9
:1034E0001B68FF31585C524202435A542339FF395A
:1034F0002822EDE7300A002070B50024264B012178
:10350000050015201C7000F01BFF0121152000F0A4
:103510001BFF224B012114201C7000F011FF012120
:10352000142000F011FF01231D4A18209169403436
:103530000B4393610F2100F071FF0F21192000F060
:103540006DFF184B1C601A682242FCD01648FFF72A
:1035500045F9164E3000FFF709FE3000FFF718FE60
:103560007F213368C1201A7880000A401A70042233
:1035700019780F4E0A430C211A701A898A431A814E
:103580000C4A1158314011501460022219780A4334
:103590001A7001232B7070BD99050020980500203A
:1035A0000004004090180040893F0000300A0020CD
:1035B000FFFF00FF00E100E00078002810D00121AB
:1035C000084B1B681A898A431A810822198B0A43FF
:1035D0001A830422198B0A431A830022024B1A60B1
:1035E0007047C046300A0020280A002010B5104A53
:1035F00093699B0B9B03936113680222FF331A723A
:103600009879823A02439A711A7A9207FCD58222FB
:103610007F24D205937A2140A34308001900802318
:1036200001439172917A5B420B43937210BDC04685
:10363000300A002010B50B790C00002B0CD10800CB
:10364000FFF7B2FC002801D0012010BD094A9369A0
:103650009B0B9B039361F7E702F048FB210002F00C
:1036600034FB0028F0D1034A93699B0B9B039361C1
:10367000EBE7C046300A0020F7B50D00832A19D1C8
:10368000CBB2324C5A01A21891693148AD010840C1
:10369000C0218905014391612E4920684D1970218F
:1036A000083355615B011A5C8A43110040220A43CA
:1036B0001A54F7BD022A44D18B000193264B8A008D
:1036C000D658002EF5D1382002F090F8234B1F4F2A
:1036D000036080235B00C360431D06628560066152
:1036E0004661C66104004760DE77C66206638020DB
:1036F0002F331E7040005E7008F0FCFC0600A061D5
:103700008020400008F0F6FCEDB26B01A062FB18CF
:103710009A680F4907201140C02292050A439A6017
:103720003A6808356D01A95C814308000321014313
:10373000A95420005E60FFF799FD074B019AD45011
:10374000B7E711002800FFF7A9FCB2E7300A002014
:10375000FFFFFF8FA40500207C050020D804010096
:1037600070B505000124064BA200D258002A05D0EE
:1037700021002800FFF780FF0134F4E770BDC04648
:1037800060000020084B8A00D05810B5002803D0F4
:1037900003689B68984710BDC9B2044B490159188A
:1037A00088688004800CF6E77C050020300A002041
:1037B00010B50C00FFF7E6FF00280CD0064BE4B272
:1037C0001B68083464011C19802362795B4213432F
:1037D00063710223E37110BD300A002070B5134BF2
:1037E000CCB2134A600189015918131859609968BD
:1037F000104D08340D4080218902294340259960ED
:103800009968890B8903996011686301CB181E7947
:1038100035431D719D796D06FCD564010919CB797D
:10382000DB07FCD512189068C0B270BD6407002099
:10383000300A0020FF3F00F070B5140040220B4B0F
:103840000D001B68FF3359790A435A710021FFF7B5
:10385000C5FFA04200D9200000230549A34203D0A0
:103860005A5CEA540133F9E770BDC046300A0020C3
:103870006407002010B5C9B20B484901421893688B
:103880009B049B0C3F2B0BDD9468403B9B04A40BDB
:103890009B0CA4032343936041188868C0B210BDF9
:1038A00093689B0B9B03F6E7300A0020F0B51C00E1
:1038B000304B85B01B6806000D000192002B55D0DF
:1038C0002D4F3978C9B2002902D1142000F03CFDF7
:1038D00064233B70294BAA00D058002808D0036805
:1038E00022005B68019998470400200005B0F0BDF4
:1038F00029003000FFF746FF844204D92900300038
:10390000FFF740FF040029003000FFF7B3FF01215B
:10391000EBB21B4F03935B010293029A3B68019841
:103920009B18FF335A7A0A4316495A72AB01C918D9
:10393000220008F014FC002CD7D029003000FFF73B
:1039400021FF0028D1D14021039B3A6808335B0155
:10395000D3181879014319710121D9710121029BF2
:10396000D318FF339A7A0A439A72BEE7012464425D
:10397000BBE7C046280A0020980500207C050020EF
:10398000300A00206407002013B56B46DC1D2200BE
:103990000123FFF78BFF012801D1207816BD0120FC
:1039A0004042FBE7F0B51E003A4B85B01B680F00A4
:1039B0000192002B3FD08023DB019E423BD8364C46
:1039C0002178C9B2002902D1152000F0BDFC642382
:1039D0000025324A2370BB01D3180293002E2CD04D
:1039E0002F4B1B680393FF233B401C0000930834BC
:1039F000039B64011C19A379DB0921D0294B2A49B7
:103A0000186805F07DFD294B1721584305F078FD16
:103A1000274BE279920713D4DA5D002A01D10138ED
:103A2000F7D20122DA55009B5A011D4B9B189A6967
:103A3000920B92039A6101256D42280005B0F0BDFA
:103A400000221B4B3400DA553F2E00D93F242200C0
:103A50000199029808F083FB009BA1045A01104BC6
:103A6000890C9B18029A2D195A619A69361B920B80
:103A700092030A439A61009B039A08335B01D318AF
:103A80000222DA715979823A0A435A71019B1B1951
:103A90000193A3E7280A002099050020A40500202F
:103AA000300A00208800002040420F007011010001
:103AB0009B05002070B50D001C000D4EAB01F618E3
:103AC00011003000220008F04AFBEDB209496D01F7
:103AD0004D196E61AB69084A20001340AB61AB69B8
:103AE000A2049B0B920C9B031343AB6170BDC046B9
:103AF000A4050020300A0020FF3F00F0F7B5104B6E
:103B000001901B780F001500002B0CD10D4B1600F7
:103B10001C78002C09D00C4E0C483488001964190C
:103B200008F01DFB34802800FEBD002EFBD03A19A2
:103B3000330000210198FFF7BDFF2418361AF4E77F
:103B400024090020250A0020260A0020250900203B
:103B5000F8B5002000AF0E001500012A26DDD31DA8
:103B60006A46DB08DB00D31A9D46080009F029FCF1
:103B70006C460323002101304000207063705A1E00
:103B8000D2B295420BDD3078002808D00136A0541F
:103B90009D4203D0E1540233DBB2F0E72A0021005A
:103BA0000348FFF7ABFF431E9841C0B2BD46F8BDC6
:103BB00078050020F0B50027012687B01E4B009144
:103BC00002A91E7005000297FFF75EFC03AC01908E
:103BD00009223900200008F0DDFA092323700223AE
:103BE00063709E33E3715A332372029B667109330B
:103BF00063806B461B7923710F4B1F70009B092B51
:103C000007D11A0021002800FFF778FF012007B034
:103C1000F0BD0A4B09221E70094E210028000297B0
:103C20003780FFF76BFF02A92800FFF72DFC034B3D
:103C300032881F700349E6E724090020250A002086
:103C4000260A00202509002070B5CE7892B0050024
:103C50000C00022E08D1C9882B48FFF7ABFF431E8A
:103C60009841C0B212B070BD02F040F8210002F0DD
:103C70000DF8002803D0C317181AC00FF2E7012E61
:103C80000BD1E2882149112A10DCD2B2002A0DD0D2
:103C90002800FFF733FF0120E4E7032EE2D1A378E9
:103CA000002B05D1E2881A49032AEEDD0A78EFE7F6
:103CB000022B05D1A27917492800FFF749FFD1E768
:103CC000012B02D1A2791449F6E7032BCAD1134B79
:103CD00001A91868FFF7D0F9114B03A91868FFF77D
:103CE000CBF9104B05A91868FFF7C6F90E4B07A9C9
:103CF0001868FFF7C1F901F0F9FF09A901F0D6FF33
:103D0000A27901A9D8E7C046780500200605010080
:103D1000F2040100E4040100F60401000CA080009C
:103D200040A0800044A0800048A0800073B5060039
:103D300048780D000B2811D805F0D8FB061D102E71
:103D4000104348704C4F696C097801AA002907D1CB
:103D50000223117051703000FFF7ACFE012076BDD8
:103D60000023137053702E4B1B78012B00D113705E
:103D700002230021EFE78A780023012A04D101AA57
:103D800013705370274BEFE7254A1370264A936947
:103D90009B0B9B039361E1E78C78012C06D10021FA
:103DA000204B01AA1C7011702300D4E7002C08D10D
:103DB00001201B4B1C4A187093699B0B9B0393615A
:103DC000CDE7A9783000FFF711FCC7E73000FFF717
:103DD0003BFFC4E70123154ACBE70B780020DB0645
:103DE000BDD13000FFF7BCFC2A200221AA780F4B7E
:103DF000FF301A600C4A13681C5C21434A24195492
:103E0000FF34195D2938FF3801431955D4E70123E0
:103E1000074AAEE78A78064B1A60B7E700209EE7AC
:103E20009A050020A2050020300A0020280A002060
:103E30002C0A00204C4BF7B51C780700002C00D052
:103E400091E04A4E33689B8B1B070ED52100200062
:103E5000FFF724F9326810231100FF31887A0343F9
:103E60008B72434B1C600823938333689A8B5207F1
:103E70001FD504229A833F4A1378002B0AD0137867
:103E8000013BDBB213701378002B03D10121152005
:103E900000F05AFA384A1378002B0AD01378013B05
:103EA000DBB213701378002B03D10121142000F032
:103EB0004BFA3368FF331A7AD20620D510221A72D1
:103EC000597930320A435A7160232C4938000A78F4
:103ED0001A4235D1FFF72AFF002834D080223368F8
:103EE0005242FF3399790A439A713368FF331A7A41
:103EF000520604D540221A72597A0A435A7233681C
:103F000007251C8C01239C43E4B20193E9B2002CE9
:103F100029D0002D27D023002B41019A13420DD028
:103F20002B00326808335B01D318DA79D20711D439
:103F3000DB799B070ED4019BAB409C43013DE5E739
:103F4000FFF778FBC8E720220D4BCDE703681B681D
:103F50009847F0E70B4BAA00D0580028F6D138005C
:103F6000FFF7A8FAE7E7F7BD250A0020300A00208E
:103F7000280A0020990500209805002064070020E9
:103F8000FF0000417C05002010B50248FFF752FFFA
:103F900010BDC046780500208222024BD2051A606F
:103FA0007047C046300A00200C23F7B54343019206
:103FB000434A0091995C0600002908D1D3185B7828
:103FC0001F2B04D1019B0231023B8B4343D00C23B6
:103FD0007343D3189C7A122C3DD03A4F3D68002D84
:103FE0002BD129004422384808F0D4F82900442273
:103FF000364808F0CFF80821354B364A1D60364B5D
:10400000D967BFF34F8FBFF36F8FC023C0205B0012
:10401000D150800013588B40CB4013508023116047
:104020002E4A9B0051690B43536140232C4A136075
:1040300011681942FCD001233B600421300000F0DC
:10404000EDF9002807D10122009BA240002B03D1EB
:10405000244B5A611A61F7BD1D491C4E0D6883003F
:10406000A84227D10130086000981749F250C85083
:104070000723A3429B4100205B42D900641A1949DF
:10408000A400087003304D680542FCD10725A54007
:1040900014489B001B18D869019EA8430525AD1B39
:1040A000A5402843D86102230B70013348681842A9
:1040B000FCD1CDE7F758BA42D6D00130CFE7C046A1
:1040C000A0070100BC0B0020340B0020780B00205F
:1040D000C00B002000E100E004E100E0000400402B
:1040E0008C18004000240040F8B50024094B1B68E0
:1040F0009C4200D3F8BD084E084FA5007369EA59E9
:104100001A4204D0064BEB589847EB5973610134BF
:10411000ECE7C046C00B002000240040780B0020D4
:10412000340B0020C0201A491A4B1B4A10B54B60B3
:10413000136A00061B021B0A0343136200240723B1
:104140008C600B608021136A09061B021B0A0B435B
:1041500006211362114BDA69186A014319620821BA
:10416000186A01431962D96911430D4A0A43DA6199
:1041700020001A21013400F0E3F8252CF8D100F0DA
:1041800095F8052000F032F800F00CF810BDC0469C
:1041900010E000E07FBB000000ED00E00004004004
:1041A000FF1700000C490D4B4A681A42FCD140230E
:1041B0000B4A536051681942FCD03F22094B996861
:1041C0001142FCD102225A70C22292009A81DA81F5
:1041D0000122054B1A70704700180040FD070000CF
:1041E000FC18004000300042C50B002010B52A4BDF
:1041F00004001B78002B04D10122284B1A7000F018
:1042000055F8032C06D10721200000F007F90028FB
:1042100009D010BD042CF6D0002C2BD1204A214906
:10422000D3690B40D3610F211F4B0C409A788A430E
:1042300014439C701A8C5205FCD1197802320A433F
:104240001A701A8C5205FCD1197E02320A431A7672
:104250001A8C5205FCD19A79D207FCD502219A8C8E
:104260001A788A431A701A8C5205FCD10B4B013212
:104270001A70CEE7052CD6D9094B0A49DA69063CF3
:104280000A40F021DA61DA69240409030C4014437E
:10429000DC610024C7E7C046C40B0020C60B002029
:1042A00000140040FFFFF0FF000C00431E4B0721ED
:1042B0001B6810B51A00DB080A4012020B401343BA
:1042C0001A4A938513001A8C5205FCD118490432FE
:1042D000C8690243CA61402216490A600868104250
:1042E000FCD007225A7019325A811A8C5205FCD11F
:1042F0003F325A731A8C5205FCD1C02252011A81E6
:104300001A8C5205520DFBD11A731A8C5205FCD12E
:10431000094B01321A70094B1B78002B02D1052082
:10432000FFF764FF10BDC04620608000000C004312
:1043300000140040F8180040C40B0020C60B0020F9
:1043400010B500F06BF810BDF7B50C224243254DB7
:104350000190535D042B2FD00027AA185278DB015F
:10436000214ED418A4192678204CF6B21C59BC4210
:1043700004D0013797407C1EA741FFB21B4C1C198B
:104380002469A44600246046A04204D0013494402D
:10439000601E8441E4B2002F17D101980C37784396
:1043A0002D18686801290DD1012C06D1410706D4CA
:1043B000D3180D4A9B181E70F7BD0107F8D50421CC
:1043C0000E43F5E704218E43F2E7012904D1914021
:1043D000064A9B189961EFE701219140034A9B1817
:1043E0005961E9E7A007010040280040002800408B
:1043F0000C23584307490023425C042A06D0064B8D
:10440000D201D2180918136A4A78D3400120184003
:104410007047C046A007010000280040F7B505001E
:10442000242800D96BE00C2343437F4FDA5DFB184F
:10443000D8785C78019098785B68042A5FD0192658
:104440007642B44684446646012E01D9884256D14C
:10445000CB40DB0701D41A2851D1081F172863D895
:1044600005F044F8364764646262626250505D0C45
:104470000C62626262626290924D624D0623002A73
:1044800000D18FE0694DD001201840190578042033
:1044900028404D1F022D01D902252843019D2D07DB
:1044A00001D54025284372B6D201002901D01A292E
:1044B0003ED10123A3405E4951184B608B61042318
:1044C00098435A4BA218D218107062B60020FEBD55
:1044D0000C235D437F19BB7A122B10D00023002AD6
:1044E00060D0524DD0012018401905780420284092
:1044F000D2E70C235D437F197B7A162B4FD1012025
:104500004042E4E70C235D437F193B7A802BF6D0D1
:10451000062301980340581E83410433AFE701236B
:10452000019803400233DAE70923A8E70123A6E74D
:104530008D1E012D0CD80123A3403D4D55196B60F4
:10454000032903D16B6104231843BAE7AB61FAE78F
:10455000012904D1A140364BD3189960AFE7610817
:10456000344D51184919E50708D50F260D781B0160
:1045700035402B43DBB20B700123E5E70F260D78A6
:10458000B543F6E70723AAE70823A8E72748D3019E
:10459000E3181B18187804231840033B7EE7002A11
:1045A000F4D10123022C02D0052C00D06AE70629A1
:1045B00000D167E7651F684245411F48475D002FEE
:1045C00000D15FE70027022647551C480778B7430C
:1045D0000770A027BF00013FFDD13F2786683E42FC
:1045E000FCD1164E2F1DB4467F00BC446646B788EA
:1045F0000226B7436646B7800F4F3E78002E03D1A0
:104600007F78002F00D13DE70227067837430770F7
:104610003F2786683E42FCD101277D1BAF40C5790C
:104620002F42FCD02EE7C046A007010040280040E2
:104630000028004030280040C70B00200030004216
:1046400070477047704770B50C0024260500320093
:104650000021200007F09EFDEB68266063600D23BB
:10466000A360FEF7C1F8002220611100A86801F0E4
:1046700033FD6061012070BD70B50C00242605007B
:1046800032000021200007F085FDEB6826606360A2
:104690000C23A360FEF7A8F800212061A86801F0B0
:1046A0006BFD6061012070BD10B5040001F0A2F83F
:1046B000200010BD10B5040001F09CF8200010BDD2
:1046C00070B50400150001F04FFC074B2575083349
:1046D000A361049B20006362044B24620833A3623D
:1046E000059B2463636370BD300501004C05010028
:1046F00010B501F04DFC10BD10B5027D0C00152A5F
:1047000007D0162A0DD008490B2A04D00B220749DE
:1047100001E00B220649200008F080FE0023E3722E
:1047200010BD0B220349F6E7180501002A05010018
:104730001E05010024050100037D152B06D0162B54
:1047400004D00B2B02D1024B4B627047014BFBE7AD
:1047500040420F0080841E0070B50C000500282226
:104760000021200007F016FD2100A868FFF7C4FF14
:104770000123E360EB68210023610D23A8686361D6
:10478000FFF7DAFFAB681A7D152A0BD0162A0FD077
:1047900000230B2A0ED1E3618023084ADB05A261C6
:1047A000236270BD064BA361064BE361064BF7E73E
:1047B000064BF8E7A361E361F2E7C0460000484218
:1047C0000000A042000020C2CDCCCC3D0000FA4247
:1047D00070B50C00050028220021200007F0DAFC4B
:1047E0002100A868FFF788FF0123E360EB68210040
:1047F00023610C23A8686361FFF79EFFAB681B7DF4
:10480000152B0AD0162B08D00B2B0CD1084BA3610B
:10481000084BE361084B236270BD084BA361002382
:10482000E361074BF7E70023A361E361F3E7C046C9
:104830000000A0420000A0410000A0400000C842CB
:10484000CDCCCC3D437A002B04D18372C372C360BC
:1048500001334372704730B5040085B002AD006883
:104860000291039201F0C3F86B79227AE179009307
:104870002068002301F0D2F92979029A206801F01A
:1048800089F8206801F0AAF805B030BD10B5040021
:10489000FFF7D8FF20790E21FFF7C0FDA0790E2188
:1048A000FFF7BCFD60790E21FFF7B8FD024B200039
:1048B00006CBFFF7D0FF10BDDC0B002007B5837AD5
:1048C00000910192002B07D09A070AD5EFF31082CE
:1048D00053425341C37272B60099019AFFF7BBFF6E
:1048E00007BDDB07F8D58389014AD360F4E7C046EA
:1048F00000240040837A002B05D09A0704D5C37AA0
:10490000002B00D062B67047DB07FCD5C368024AB3
:104910009BB21361F7E7C0460024004010B5006861
:1049200001F06EF810BD70B506000C008D18AC4299
:1049300006D021783000FFF7F1FF20700134F6E750
:1049400070BD0000094B0A4A1A6000225A711A71A0
:10495000084B5A72084A1A6023221A71023A9A7155
:10496000013A5A711F3ADA711A727047DC0B002053
:1049700000093D00CC0B0020C415002013B50A4CE3
:10498000200001F013FD6A460123D3701371FA234E
:10499000DB00D380002320006946937053701370AE
:1049A00001F0ACFC16BDC046E40B002010B5024877
:1049B00001F01AFD10BDC046E40B002070B50C4C90
:1049C000C2B0200001F020FC0600200001F022FC13
:1049D0000500200001F024FC2B0002000549009690
:1049E00002A808F0ADFC02A800F036F942B070BD94
:1049F000E40B0020A305010070B50C4CC2B02000F0
:104A000001F002FC0600200001F004FC050020007B
:104A100001F006FC2B0002000549009602A808F0F0
:104A20008FFC02A800F002F942B070BDE40B002038
:104A30006805010070B50C4CC2B0200001F002FC0A
:104A40000600200001F0F2FB0500200001F0F4FB5D
:104A50002B0002000549009602A808F071FC02A88C
:104A600000F0FAF842B070BDE40B00207F050100B1
:104A700010B5024801F0BAFB10BDC046E40B00209F
:104A8000072800DD0720C343DB171840014B1860DF
:104A90007047C0468C000020F8B50E4E17003060FD
:104AA000FEF7C0FA002308240B4D2B703068FEF788
:104AB000BBFA00280AD1FA20013CC000FDF7CAFE6B
:104AC000002CF3D13800FFF7DBFFF8BD01232B707A
:104AD000F8E7C046E80B0020E50B00200EB400B557
:104AE0000C4BC2B01B78002B10D00B4B1B688342C1
:104AF0000CDBFFF781FF44AA439902A8019208F05A
:104B00009FFF064B02A91868FDF754FF42B008BC8E
:104B100003B01847E50B00208C000020E80B0020B4
:104B2000F0B51F00164BC1B01B780C001600002B0F
:104B300024D0144B1B68834220DBFFF75DFF124D2E
:104B4000002C08D011492200684608F0F9FB69469C
:104B50002868FDF70AFF3400A31BBB420ADA22785B
:104B60000B49684608F0ECFB69462868FDF7FDFE36
:104B70000134F1E707492868FDF71CFF41B0F0BD9B
:104B8000E50B00208C000020E80B0020020601004D
:104B90000606010077040100F7B501931E4B0600DD
:104BA0001B7800911400002B34D01C4B1B68062B83
:104BB00030DD019B1A4D002B02D02B68002B12D048
:104BC0002B68E718FF2F0ED816482200C01800994E
:104BD00007F0C5FA341E2F6005D03F22310012487D
:104BE00008F01CFC0024019B234313D02B68002BEE
:104BF00008D00D4F0B4A39000720FFF791FF002323
:104C00003B702B60002C05D02300009A3100072058
:104C1000FFF786FFF7BDC046E50B00208C000020A3
:104C2000EC0C0020EC0B0020F00C0020074B10B522
:104C30001B780100002B07D0054B1B68062B03DDFA
:104C4000044B1868FDF791FE10BDC046E50B00202F
:104C50008C000020E80B0020074B10B51B780100EA
:104C6000002B07D0054B1B68062B03DD044B18688F
:104C7000FDF7A0FE10BDC046E50B00208C00002013
:104C8000E80B0020074B10B51B780100002B08D063
:104C9000054B1B68062B04DD044B0A221868FDF740
:104CA000E8FE10BDE50B00208C000020E80B002082
:104CB0001B4BF7B51B7806000F00002B2ED0194BAD
:104CC0001B68062B2ADD002800D1174E002F01D1CA
:104CD000164B1F88164D17492868FDF76BFE0024F8
:104CE0007B1E325D9C420ADA1349684608F028FBB5
:104CF000013469462868FDF738FEA4B2F0E70F4991
:104D0000684608F01DFB69462868FDF753FE09490F
:104D10002868FDF74FFE0022044B1A80F7BDC046FD
:104D2000E50B00208C000020320D0020300D00200B
:104D3000E80B0020C5050100FC0501000706010085
:104D400013B500206B46DC1DD87108F013FC201A47
:104D500016BD000010B50121054801F03FFD0549D1
:104D6000041E054800D00549FDF724FE200010BDB3
:104D7000341100200C0601005C050020190601001A
:104D8000F0B5C7B00C000500144903A801F016F8EF
:104D9000002306AE009301332100FF333200104898
:104DA000802701F0D1FB02247F00315DFF2909D16A
:104DB00003A9280000F0ACFF03A800F0B7FF28000B
:104DC00047B0F0BD03A8013401F059F8BC42ECD162
:104DD0000449280000F0F2FFEEE7C0467704010026
:104DE0003411002074070100F0B5144985B00500A6
:104DF000002400F0E3FF0327114B1022195D01A8E6
:104E000001F000F801A9280001F026F801A800F03F
:104E10008DFF2300661C3B40032B05D10F2C06D0D1
:104E20000849280001F01EF83400102EE4D12800B3
:104E300001F05FF8280005B0F0BDC046770401001E
:104E4000D41500201B240100024B034A1B68106884
:104E5000584370474012002044120020014B18684C
:104E60007047C04640120020F0B587B004930CABE9
:104E700003921C4F04CB3D781B781B4C01936B01B4
:104E8000E4180291060001002000059208F091FA52
:104E9000029BA360039BE360049B2361059B63610A
:104EA0000E9BA361019B012B0CD0002323773B7841
:104EB000320001330D4907203B70FFF70FFE280039
:104EC00007B0F0BD6B461B790E9A237708492B007B
:104ED000300002F035FE0749020060770720FFF737
:104EE000FDFDE4E73211002048120020F806010021
:104EF00029520000E406010010B543010248C01821
:104F00008368984710BDC0464812002043010748F7
:104F100010B5C018407F02F08DFE02230C2803D08C
:104F20000133984200D00023180010BD4812002021
:104F300070B50D000221040001F0FDFFC0B2002891
:104F400016D10100200001F0CEFFC0B200280FD121
:104F5000280008F036FA29000200200001F0CFFFF7
:104F6000C0B2002804D10121200001F0BCFFC0B272
:104F700070BD0000F0B5A7B01F002CAB01911C78EC
:104F800006A90500160002A8802201F09BFF1C491B
:104F90006401091902A8FFF7CBFF002803D063239F
:104FA000180027B0F0BD31003A0002A801F0A7FFB9
:104FB000061EF4D102A801F092FFC7B2040039B274
:104FC000280003F0B5FB03230028E9D0E4B2220057
:104FD00006A907F0C4F8019B0A491F700720FFF7D4
:104FE0007DFD230006AA08490720FFF799FDFFF77A
:104FF000A7FE064902000720FFF770FD3300CFE748
:10500000481200202706010062100100630E010013
:10501000F0B50600A9B04C36059205000F0005AAB0
:105020000B2130001C0002F029FD0390002804D061
:105030008423BB7000233B643EE0039A0F213000C1
:1050400002F01CFD0290002801D18523F1E7AD7824
:10505000012D00D081E06A46127B02AB54490298D0
:105060009A7501F0E1FF0390002828D102AB1635B4
:10507000ED186B461B7B62012B704E4B29009B1871
:105080001B6908A8984716212B7802A800940918D4
:1050900008AA386DFFF76EFF0400039D02AB9B7DED
:1050A000220045490720FFF719FD002C4FD1002DA4
:1050B00043D043233C64BB70002029B0F0BD3F497E
:1050C000029801F0B1FF029000286AD10200062187
:1050D000300002F0D3FC061E18D002F0DBF80028E6
:1050E00003D0012809D004240EE0324B64011C19BE
:1050F000607F02F075FD0400D0E72E4B64011C199F
:10510000607F02F081FD0400029DC7E7172502AB16
:10511000ED18284B62019B1828702900DB6808A84D
:10512000984716212B7802A80094091808AA386D10
:10513000FFF720FF35000400B0E702AB9B7D0222A1
:105140003B643B003C331A704523BB70B4E7042C2E
:1051500001D0142C29D186236BE7032D00D074E7EE
:105160001726144B64011C19636908AC0493029B55
:1051700020009D7802ABF618029B357059682A0012
:1051800008F04CF96B461B7B310063552000049BF3
:105190009847002803D144233864BB708CE701286A
:1051A00001D1A12345E70428D5D0A02341E7C0467B
:1051B000AB06010048120020B4060100AF06010052
:1051C000F7B5060000244C3601AA07000D00300098
:1051D0000B21019402F052FC300001AA0B2102F0D5
:1051E0004DFC0600A04217D00D4B1B789C4211DAF3
:1051F0000C496301C918300001F016FF002806D1E0
:105200002300019A29003800FFF702FFFEBD013498
:10521000E4B2E9E78423AB7000202864F6E7C046D7
:105220003211002048120020F0B50F25A7B002ABC4
:10523000ED1800230F0016000B4C2B705301E418DF
:105240002200039009490720FFF748FCE368290082
:1052500006A898472B7806AA009639000398FFF70E
:1052600089FE27B0F0BDC046481200200E0701009D
:1052700084238B70002363200B64704700B591B0CA
:105280001549684608F095F81449684608F07AF818
:105290006846FFF7E1FC1249684608F08AF81149B0
:1052A000684608F06FF86846FFF7D6FC0E4B0F4AC9
:1052B0000F49684608F044F86846FFF7CDFC0D48F2
:1052C000FFF7CAFCFFF73CFD0B4902000720FFF780
:1052D00005FC11B000BDC046460601006406010091
:1052E0006A060100770601007D06010089060100BB
:1052F0009206010077040100630E010007B5012248
:10530000194B01001A700022184B19481A7091426B
:1053100028D11849103208F081F808204042FFF7E0
:105320002DFBE121072249021348FFF7B5FB0121BC
:105330000920FFF705F801210920FFF705F80023F0
:10534000FA2201930D4BD2005A2100930C48FF23FF
:1053500003F056F803F022F83220FDF77BFAFFF74E
:105360008DFF07BD1022D6E79200002032110020E9
:105370009C0000203E0601005C050020770401002F
:105380003814002010B5034A0D21034801F058F8E5
:1053900010BDC046CC0B0020341100207FB50500A5
:1053A000164901A800F00AFD154E3000FDF7DCFD9E
:1053B000C4B22E2C15D0FF2CF7D0210001A800F08C
:1053C0005EFD242C09D10F49280000F0F7FC01A84C
:1053D00000F0ACFC280004B070BD232CE5D10A49D4
:1053E000F2E7210001A800F04AFD002101A800F029
:1053F00046FD01A9280000F08BFCE8E777040100D6
:105400005C0500203A0601003C06010010B586B09C
:105410006846FFF7C3FF1A49684600F03AFD194C89
:1054200000280FD0012103A8FFF7AAFC03A9200040
:10543000FDF7B6FA03A800F079FC684600F076FCA8
:1054400006B010BD1049684600F023FD002803D0C7
:1054500003A8FFF7C9FCE9E7FFF77CFC01236A46D4
:1054600019000A4801F092F8002804D008492000E9
:10547000FDF7A0FAE1E707492000FDF776FADCE73F
:105480003A0601005C0500203C06010034110020B2
:105490002A07010033070100F8B5214B1B78002BC8
:1054A0003BD0204C2378002B09D01F491F48FDF723
:1054B00081FA00211E4801F015F8002323701D4ECB
:1054C0003378002B26D11C4C0133236023680A2B30
:1054D00010DC164D2800FDF71FFD071E0BD028001D
:1054E000FDF742FD154BC1B228001970FDF76CFAAB
:1054F00001233370F8BD0A2221682800FDF7B9FAAC
:10550000FA208000FDF7A6F923680A2BDCD1044BB2
:105510001F70EFE7FFF77AFFECE703F075F8E9E7B4
:1055200091000020900000203A0701005C05002057
:1055300034110020381200203C12002039120020C3
:10554000F8B505000E0017000024BC4208D02B68F7
:10555000315D1B6828009847002801D00134F4E72A
:105560002000F8BD704710B5183000F071F910BD7B
:1055700010B5183000F05CF910BD70B5837D0D00DA
:10558000002B01D1002070BD6030040000F07EF9D6
:105590000028F7D12000290000F03BF90120F2E7B4
:1055A00010B5183000F068F910BD0000F7B5019390
:1055B000FA23002504009B0083600A4B45600833F2
:1055C000036018300F00160000F018F9200060305A
:1055D00000F014F96B461B7927612675A57520002C
:1055E0006375FEBD7C07010070B50400006900F022
:1055F0004FFA002828D0206900F058FA00280ED170
:10560000206900F05DFA002850D0206900F053FABC
:1056100000284BD0206900F058FA002846D12069B4
:1056200000F002FA0321206900F008FA2300B033E9
:105630001D68002D04D0236820001B699847A847E7
:105640002000183000F0F0F870BD206900F0ECF98F
:105650002069032100F0F2F9206900F036FA0028F1
:10566000F2D02000603000F0DFF80123A375AC34E5
:105670002368002BE8D09847E6E71835280000F0AB
:1056800005F9002807D0206900F0C6F90321206938
:1056900000F0D4F9D8E7206900F01CFA01002800D6
:1056A00000F0B7F8206900F0BFF9EFE7206900F0DB
:1056B00007FA0028C9D1206900F0F3F90028C3D007
:1056C000206900F002FA25000028D6D060352800B5
:1056D00000F0BEF8FF21002803D0280000F0A8F851
:1056E000C1B2206900F0C6F9A075ADE710B5024857
:1056F000FFF77AFF10BDC046C812002010B517236F
:10570000162202490248FFF751FF10BDC4150020C0
:10571000C812002010B50248FDF7D0FA10BDC046EF
:105720007C13002010B50248FDF7C8FA10BDC04632
:105730003814002010B50248FDF7C0FA10BDC0466D
:10574000F4140020F7B584211A48C90500F0A9F81F
:1057500019491A4800F0A5F8194F1A49380000F005
:10576000A0F8194D1949280000F09BF8184E194966
:10577000300000F096F81849184800F092F801241B
:105780000023310003260193220000941448FDF702
:1057900067FA3900009601940A230B221148FDF79D
:1057A0005FFA009629000194122315220E48FDF796
:1057B00057FAF7BDB015002000040042B4150020D0
:1057C000B815002000080042BC150020000C004263
:1057D000C01500200010004200040043C415002042
:1057E0007C13002038140020F414002010B506F0BB
:1057F00081FC10BD10B506F087FC10BD10B540222D
:105800000021040006F0C6FC00232000236463642A
:1058100010BD3F22036C01331340426C9A4202D008
:10582000026C81540364704700230364436470472F
:10583000426C036C9A4208D03F21436CC25C436CBB
:1058400001330B4043641000704701204042FBE7E6
:10585000036C406C181A00D540307047026C436CE2
:105860009A4204DB036C406CC01A3F307047436CB3
:10587000006C181A0138F9E7426C036C9A4202D0A6
:10588000436CC05C704701204042FBE703003F22AD
:10589000006C5B6C01301040C01A43425841C0B2EA
:1058A000704701607047F0B505AC25780468981E14
:1058B000471EB8412668920700063243024307207C
:1058C00022600140AD01626829430020022B00D014
:1058D0005803114301436160F0BD10B5C024036853
:1058E000A4031868120522400243C0200904800264
:1058F0000140114319605A681043586010BD0122DD
:10590000036819680A431A601A68D207FCD4DA6976
:10591000D207F9D470470222036819680A431A6053
:10592000DA699207FCD4704703681A7ED20702D462
:105930001A7E9207FCD57047002203685A8370478D
:105940000368187E4007C00F70470368187EC009BF
:105950007047802302685B42117E0B4313767047C9
:105960000368187EC007C00F70470368188DC0B267
:10597000704703681A7ED207FCD589B201201985C9
:105980007047012203689A757047012203681A75EF
:105990007047000070B5012504684B082B40294072
:1059A000206809075B070B4303432360044B510046
:1059B000186803F0A5FD0138C0B2207370BDC04661
:1059C000940000200122036819680A431A601A68CB
:1059D000D207FCD4DA69D207F9D4704702220368EF
:1059E00019680A431A60DA699207FCD470470368A1
:1059F000DA699207FCD402211A688A431A60704758
:105A00000268936A5B0A5B0219439162137E5B072B
:105A1000FCD5906AC0B2704780230268DB0211682F
:105A200051680B4353607047036803491A685A680A
:105A30000A405A607047C046FFFFFBFF036810B57D
:105A400018680322C006400F094C052809D1586880
:105A500011400904204001435960DA695207FCD41F
:105A600010BD586811400904204001435960F7E710
:105A7000FFFFFCFF036800201A00283211701A7E15
:105A8000520704D5588B01234007C00F5840704778
:105A900003681868C006400F043843425841C0B23A
:105AA00070470368187E4007C00F70470368187E70
:105AB000C007C00F70470368588BC006C00F7047FF
:105AC0000368187E8007C00F70470368588B000773
:105AD000C00F704703681A68D206520F052A02D118
:105AE0001A7E9207FCD528331878C0B270470000A0
:105AF0008422036830B5D205934211D0214A9342E3
:105B000034D0214A934234D0204A934234D0204AA0
:105B1000934234D01F4A934227D10D23182201E02B
:105B2000082312220121032599401B48C02401604B
:105B300099082B40AB40FC359D4089000918A40012
:105B400008599200A843C0259D402B0003430B51E8
:105B5000124BD1184023CB671149086811490860DE
:105B60000E495218D16F1942FCD030BD09231322BF
:105B7000D8E70A231422D5E70B231522D2E70C23FA
:105B80001622CFE70004004200080042000C004249
:105B9000001000420004004300E100E0041800404F
:105BA0008800002094000020F8B516001D0002684F
:105BB000184B04000F009A4200D101262000FFF785
:105BC00097FF2000FFF79BFE1C22BB0013407207CB
:105BD0002468120C134323608423A375012F18D16A
:105BE0001021012E00D008390B4B69431868C00002
:105BF00003F086FC0722A3890240DB045203DB0C7E
:105C00001343A3810304A089DB0C400B400318431A
:105C1000A081F8BD0004004394000020F7B5070000
:105C2000019308AB1E780D001400FFF7CBFE38007F
:105C3000FFF75EFFC022240592031440B2070C2632
:105C400007211643019A34430A40C02611008022DE
:105C5000B6022D043B683540920225430A431D607D
:105C60005A60F7BD70B50E0000254468002C0BD0BB
:105C7000236831005B6820009847002802DB2D185C
:105C8000E468F3E701256D42280070BD70B50D0092
:105C90004468002C08D0236829009B68200098479E
:105CA000002802D1E468F4E7200070BD70B50D0053
:105CB0004468002C07D0236829002000DB6898473F
:105CC000E4682D18F5E72C7070BD70B50D004468C0
:105CD000002C08D0236829001B6820009847002862
:105CE00002D1E468F4E7200070BD00000121064AFB
:105CF00010B5136805480B4005D10224047024191F
:105D000044704360116010BDC8150020CC15002000
:105D1000002303600A68436002604A68836042604F
:105D20008A6882600B604B608B60704710B504001E
:105D3000006806F0E9F9200010BD10B50400006805
:105D4000002801D006F0E0F900232360A36063601F
:105D500010BD70B504000D000068013107F0D4FAE1
:105D6000031E01D0012028C470BD036810B50400D3
:105D7000002B04D043688B4201D3012010BD2000CA
:105D8000FFF7E7FF0028F9D0A368002BF5D12268C0
:105D90001370F2E770B50E00110004001500FFF754
:105DA000E4FF002804D12000FFF7C7FF200070BDEA
:105DB000A5603100206807F0FCFAF7E7002370B512
:105DC00004000D00036043608360994207D008001F
:105DD00007F0F7FA290002002000FFF7DBFF2000A0
:105DE00070BD70B504000D1E09D0080007F0E9FA77
:105DF000290002002000FFF7CDFF200070BDFFF753
:105E00009CFFFAE71FB504000023080023606360CD
:105E1000A36001A902F0F4FE01A92000FFF7E1FF51
:105E2000200004B010BDF8B504000F1E02D10026FA
:105E30003000F8BD0126002AFAD08368D518290061
:105E4000FFF793FF0028F2D02368A2683900981862
:105E500007F0AFFAA560EBE710B58A680968FFF7AD
:105E6000E2FF10BD70B505000C00081E06D007F05B
:105E7000A8FA210002002800FFF7D5FF70BD07B582
:105E8000002201AB19705A7019000132FFF7CBFFE5
:105E90000EBD836810B5002B07D10120002903D067
:105EA0000B7858425841C0B210BD002902D1036896
:105EB0001B78F6E7006807F072FA0300F1E770B5A7
:105EC0000D00002A06D0002904D084689C4202D824
:105ED00000230B7070BD013AE41A944200D91400FB
:105EE00001682200C918280007F098FA00232B55F2
:105EF000F0E710B50468002C07D02078002804D003
:105F000007F042FB20700134F7E710BD1FB50E4BC0
:105F100000221B6800930D4B1B6801930C4B1B6800
:105F200002930C4B1B6803930300694689580432A3
:105F30000C0E1C700C0C5C700C0A9C70D970043335
:105F4000102AF2D104B010BD0CA0800040A0800047
:105F500044A0800048A0800010B50248FFF7D6FF9B
:105F600010BDC046D4150020074B10B50400417188
:105F700082710649186803F0C3FAFA239B0058435C
:105F8000E060200010BDC0468800002040420F00A5
:105F900010B5040002214079FEF7D2F9014BA3604D
:105FA00010BDC04630F8FFFF70B505000E0000249C
:105FB0006879FEF71DFAB04204D1EA68631C944286
:105FC00002D30024200070BD1C00F1E770B5D0B0F2
:105FD0000D000400FCF708FC002D07D1A3683D4A22
:105FE000C31A934202D8207C50B070BD0025A06037
:105FF000012160792571E570A57065702570FEF747
:10600000A3F9FA20FCF726FC60790121FEF798F944
:1060100060792900FEF798F91420FCF71BFC72B692
:1060200001216079FEF790F9A0239B00013BFDD18F
:1060300002216079FEF784F9A023013BFDD12900FC
:106040002000FFF7B1FFA84203D10020207462B600
:10605000CAE701212000FFF7A7FF0028F5D0A026FE
:10606000760000212000FFF79FFF6B460121E850DA
:106070002000FFF799FF2B0008356B445860B542AC
:10608000EFD162B6002201216846D300C0586B44AC
:106090005E68002801D0002E02D100202074A3E702
:1060A000D510635D5B00DBB2B04210D301326355A3
:1060B000282AE9D16178237822795B18A1785B18C6
:1060C000E1785B18DBB29A42E7D10120E6E70B43A7
:1060D000ECE7C046CF070000F8B50D001100040042
:1060E000FFF774FF002807D0A379DAB20B2A05D096
:1060F00002D3153B012B13D9194810E0A07803F007
:10610000CFFF002D0BD005F0B9FD164A164B04F059
:1061100051FF0022154B04F009F805F001FEF8BD0F
:106120007F20A678304003F06BFF8721C90503F07C
:106130000FFE071CE07803F063FF391C03F0CEFB71
:1061400005F09CFD0A4A0B4B04F034FF76B205F0D3
:10615000E7FD002ED5DA80231B06C018D1E7C04624
:106160000000C07FCDCCCCCCCCCCFC3F000040406C
:106170009A9999999999B93F70B500210400FFF750
:1061800025FF002807D0A379DAB20B2A05D002D365
:10619000153B012B05D90E4802E0207803F080FF63
:1061A00070BD207803F07CFF8721C90503F0D0FD86
:1061B000051C607803F024FF291C03F08FFB05F019
:1061C0005DFD044A044B04F0F5FE05F0A9FDE7E788
:1061D0000000C07F9A9999999999B93F024B186923
:1061E000431E9841C0B27047002000400023037056
:1061F0007047000010B5FFF7F1FF0028FBD1014BFD
:10620000986910BD0020004010B5FFF7F3FF3F2351
:10621000184010BD10B5FFF7EDFF0005800E10BD52
:1062200010B5FFF7E7FFC003C00E10BD10B5FFF7B4
:10623000E1FF8002C00E10BD10B5FFF7DBFF80014B
:10624000000F10BD10B5FFF7D5FF800E10BD000088
:10625000C888094BCA78C01883060879520480059B
:1062600010430A7810438A78120310434A78920147
:10627000104318437047C04630F8FFFFFA2010B5AE
:106280001F248B0EC0001B18480C2040D0703F20EC
:10629000D3808B011B0F13710B0B234093708B0961
:1062A000034001405370117010BD000010B5FFF79E
:1062B00095FF0028FBD10221054B064A1A819A81DD
:1062C0001A888A431A80FFF789FF0028FBD110BD86
:1062D00000200040FF81FFFF10B5FFF77FFF00287F
:1062E000FBD10223044A11880B431380FFF776FF8A
:1062F0000028FBD110BDC0460020004070B505004D
:10630000FFF7A6FF0600FFF769FF0028FBD10B4C43
:106310002800FFF7CBFFA661FFF760FF0028FBD145
:1063200080222388120213432380FFF757FF00289F
:10633000FBD12800FFF7D0FF70BDC0460020004011
:106340001FB50E4B0400994200D2190001A801911B
:1063500005F0CAFD037B02A9CB700369084A01332B
:106360000B7143699B18CB80037A8B7003794B7058
:10637000036820000B70FFF7C1FF1FBD80436D381D
:106380006C07000010B5FFF791FFFFF727FF00280B
:10639000FBD10123044A11880B431380FFF71EFF32
:1063A0000028FBD110BDC04600200040802310B55E
:1063B000094A5B00516904000B4353610422074BF7
:1063C0001A61FFF7DFFF064A064B20001A80FFF72D
:1063D00083FF0123237010BD000400400010004023
:1063E000088BFFFF0020004030B5134C8DB02368B0
:1063F0000500002B03D1FFF7D9FF012323602800FC
:10640000FFF7F8FE01AC010022002800FFF736FF7D
:10641000E3880A4A03A89B1808932379013B079352
:10642000E3780693A3780593637804932378039322
:1064300005F084FF0DB030BDE415002094F8FFFF97
:10644000F8B5254B1600FF22036000230D005221F2
:1064500042748274C2740275421C437103710372E8
:1064600043778377C377D3772A3211700531517020
:1064700000220400194F8367C367026339001222A8
:106480009C3005F06CFE2000390048221431B030F9
:1064900005F065FE2000390009225C31F83005F076
:1064A0005EFE3900A01C6531FF30032205F057FE67
:1064B0000B4BE6609E420CD10A23280063752574BD
:1064C0000121FDF73DFF207C0121FDF73DFF20006C
:1064D000F8BD0B23F1E7C04600093D005C0901004F
:1064E000CC0B002070B5437D04000D000B2B02D0B7
:1064F000C068FEF7CBF9237A002B07D11B2262700C
:10650000643A2370A270E370237163712900200044
:1065100000F0E4FB0500200000F0A0FA00232000BA
:10652000A37700F095FB280070BD000010B5054C66
:10653000002901D1207810BD2178012200F06EFCE5
:10654000F8E7C046441D0020F7B51E0008AB1B78D5
:10655000170001930A0033000321040000F0E2FA5F
:10656000051E10D0019B0B21002B00D10321200020
:1065700000F0AAF9200033003A00032100F0FEF9F0
:10658000200000F06BFA2800FEBD0000F0B589B0D5
:106590009668040010006A4600AF7B60731CFB61C4
:1065A0000733DB08DB00D31A9D467961FB60721C60
:1065B00000236946FFF783FC200000F061FA051E06
:1065C00002D00023BB6174E004227969200000F04E
:1065D0002FF90028F5D0721D7969200000F0A4F988
:1065E0000028EED07C49200000F058FA0028E8D0BE
:1065F0000121200000F078FA0028E2D002212000DA
:1066000000F062F9FA692600EA402C36D2B23178FD
:106610002000083500F0ACF9202DF3D10121207CB9
:10662000FDF792FE200000F019FA7B69FA69043345
:1066300019002000BB6000F0FBF80028C1D06649BB
:10664000200000F02BFA0028BBD00121200000F030
:106650004BFAB8610028B4D080253B7D6D00ED1A5F
:10666000FB69ADB2AB4228D8207C0021FDF76CFE5F
:1066700031780222200000F07BF9200000F0FCF8C5
:106680000025FB69AB420AD9FB6820005A5D230054
:106690002C331978013500F06BF9ADB2F1E7207CAD
:1066A0000121FDF751FE7B68002B4FD1200000F047
:1066B000D5F9BD46B86909B0F0BDBB8B7B6100233D
:1066C0003B617B69AB4200DC1D00207C0021FDF7B3
:1066D0003BFE23002C3319780222200000F048F9F9
:1066E000200000F0C9F80026AE420CDA3A69FB68D7
:1066F00020009B189A5D23002C331978013600F096
:1067000037F9B6B2F0E7207C0121FDF71DFEA36F3B
:1067100031495B19A3673B6920005B199BB23B6160
:106720007B695D1BABB27B6100F0B8F9002800D13A
:1067300047E70121200000F0D7F9002800D140E709
:1067400080257B696D00002BBBD1ACE76B462249ED
:1067500020007B6100F0A2F9B861002838D06A46B9
:10676000BB68207CA367FB6900210733DB08DB00E3
:10677000D31A9D46FDF7E8FD23002C331978032238
:10678000200000F0F5F820006E4600F075F80025B6
:10679000FB69AB420AD923002B3319780022200071
:1067A00000F0E6F870550135EDB2F1E7200000F099
:1067B00055F90023FA699A4207D9FA68F15CD25C6C
:1067C000914205D10133DBB2F4E77B699D4670E766
:1067D0007B699D46F5E6C04600CA9A3B030070B54A
:1067E00054331D7804000A00002D05D12A000C2125
:1067F00000F014FB280070BD8023EF215B0200F045
:1068000091F9051EF6D0230055331978200000F0C9
:106810005BF8200000F022F9A16D200000F03EF9A5
:106820000500E7E710B5C068FEF778F810BD000076
:10683000F8B50F00002105001600FFF777FEF723DB
:1068400003400020032B08D0EC6B844206D109489A
:106850002200012102F0ECF92000F8BDBE19B4427B
:1068600004D8361BEE67AF670120F6E70023EB671D
:10687000F9E7C046441D002010B5C37F0400002B7B
:1068800004D003007B331978FFF7CCFF23007A3361
:1068900019782000FFF7C6FF23007933197820000C
:1068A000FFF7C0FF2300783319782000FFF7BAFF05
:1068B000012010BD10B5016804004268C068FDF7F2
:1068C000FDFF0120607710BD70B5437F04000D000F
:1068D000002B01D1FFF7EEFF207C0021FDF734FDF6
:1068E0000B2D15D005D8022D09D0032D07D0290076
:1068F00016E0522D03D0D82D01D0202DF7D129003C
:106900002000FFF78FFF2000FFF7B6FF012070BDCA
:1069100029002000FFF786FF2000FFF7ADFFEE21E2
:106920002000FFF77FFFF1E770B503210400160098
:106930000025FFF7C9FFB54212D00021E068FDF73E
:10694000EDFFFF280AD0207C0121FDF7FDFC074860
:106950000022072102F06CF9002070BD0135EAE742
:10696000207C0121FDF7F0FC0120F6E7441D00200A
:1069700010B51100C068FDF7D1FF10BD10B50C00B7
:1069800011001A00022C01D0032C02D1C068FDF7BF
:10699000CAFF10BD70B504000521FFF795FF002167
:1069A000E068FDF7BBFF251DE877207C0121FDF79E
:1069B000CBFCE87F70BD70B504001521FFF784FFA4
:1069C0000021E068FDF7AAFFA51DE877207C0121E2
:1069D000FDF7BAFCE87F70BD70B506000124FFF733
:1069E000EAFF20420ED1B7213000FFF76DFF307C67
:1069F0002100FDF7A9FC3000FFF7DDFF2040051E58
:106A000002D0F477200070BD02000D21024802F090
:106A10000FF92C00F6E7C046441D002070B50500B4
:106A20000124FFF7C8FF204212D0E9212800FFF718
:106A30004BFF287C2100FDF787FC2800FFF7BBFFF8
:106A4000204007D000220E21034802F0F1F8002474
:106A5000200070BDE877FBE7441D002010B504005E
:106A60000121007CFDF770FCE37F002B02D02000A9
:106A7000FFF7D4FFE068FDF73DFF0023637710BD0B
:106A800010B5847F002C04D000220F21024802F0B0
:106A9000CFF8200010BDC046441D0020F8B5060008
:106AA0000C002023013BFDD1FBF7A4FE01270500CC
:106AB0003000FFF76FFF331DDB7F3B4201D1012028
:106AC000F8BDFBF797FE401BA042F1D3FBF792FE07
:106AD000401B8442F3D803480022042102F0A8F8A6
:106AE0000020EDE7441D002070B504000D000621D4
:106AF000FFF7EAFE207C0121FDF726FC2000FFF7CE
:106B000049FF0224044009D1002D05D022000621AE
:106B1000034802F08DF82500280070BD0125FBE731
:106B2000441D0020F8B51E00030037331B78040015
:106B30000F001500EF2B14D0022F1BD0EF2F37D0F2
:106B40002000FFF79DFF002812D13200290020000D
:106B5000FFF76EFE00280BD01B492000FFF79EFFB9
:106B600007E01A4B9A42E7D9FFF736FF0028E3D136
:106B70000020F8BD2000FFF783FF0028F8D1320085
:106B800029002000FFF754FE0028F1D03200290030
:106B90002000FFF7C9FE0028EAD00B492000FFF7CC
:106BA0007DFF0028E4D001212000FFF79DFFE0E7F2
:106BB0002000FFF765FF0028DAD13200290020000D
:106BC000FFF736FEE7E7C04600CA9A3BFFFFFF002B
:106BD00010B504000421FFF777FE207C0121FDF7AA
:106BE000B3FB012010BD000070B517490400FFF78A
:106BF00055FF051E25D09F212000FFF765FE2600CA
:106C00000021E068FDF78AFE373630700021E06829
:106C1000FDF784FE2300383318700021E068FDF78B
:106C20007DFE230039331870207C0121FDF78CFB99
:106C30003478002C05D122000B21044801F0F8FF24
:106C40002500280070BDC04600CA9A3B441D0020A4
:106C5000030070B538331B780400252B1CD1FFF7D7
:106C600099FE231DDD7F3C23502120009D43FFF72B
:106C70002BFE207C0121FDF767FB01212000FFF79F
:106C800023FE29002000FFF7CDFD207C0121FDF728
:106C90005BFB0125280070BD0125262BFAD10E498A
:106CA000FFF7FCFE051EF5D001212000FFF71CFFB9
:106CB000A023013BFDD198212000FFF705FE207C99
:106CC0000121FDF741FBC8239B00013BFDD12000C2
:106CD000FFF77EFFDEE7C04600CA9A3B0200F8B528
:106CE000012364321370103A1370083A1370083A93
:106CF00013700300202245331A7032321A72863222
:106D00001A74414B00228364404B05000365404BDD
:106D10006535836503005C331A7060232B703D4B2F
:106D200004008366030001327233FF321A800E00C2
:106D3000FFF75AFF2300A21C37331978FF32C13303
:106D40001878884227D12300012235331A70230096
:106D500022003833FF321B789078984205D0D078E3
:106D6000984202D012799A4201D1C7232B70230096
:106D700035331D78002D32D027003937C22911D183
:106D80003B78132B0BD0142B1BD00022022122485E
:106D900001F04EFF06E001339342D1D1D7E78023C3
:106DA000DB03E36300233A7819009C31615C914274
:106DB0000AD12C339B001B593434A3600123237068
:106DC00012E080231B04ECE70133122BECD1E36BC0
:106DD000002B08D1002E0FD0E6633434EFE73634B1
:106DE0002578002D02D001252800F8BD2A000221B7
:106DF000094801F01DFFF7E732000321064801F0C2
:106E000017FF3500F0E7C04600CA9A3B0050D6DCB9
:106E1000004059730000DD0E441D002010B50248EB
:106E200001F006FF10BDC046441D0020F7B58446A2
:106E30000D00019216BAD3B20024172A0AD9130002
:106E4000183BE72B11D9531E1C49FF3B8B420FD82F
:106E500019230224A96868680F19B8420BD20123CC
:106E60000124EB6064422000FEBD18230124F1E7F9
:106E70001A230424EEE760464F1C1843AF600870E5
:106E8000002CF0D0022C0ED0042C15D00823012C9D
:106E9000E6D1220001A9A86805F061F9AB681C19C8
:106EA000AC600024DFE70649130292B20B40120ADD
:106EB0001A4392B20192ECE70196EAE7FFFE000066
:106EC00000FFFF0070B505000C0016000021102225
:106ED00005F060F92C60AC60A4196C6070BD83682B
:106EE0000068181A7047002310B50A00994201DAA9
:106EF000CA43203301001800FFF798FF10BDF8B512
:106F000004000F00010060201500FFF78FFF061E30
:106F100007D1A06863681B1A9D4204DD0123013E6E
:106F2000E3603000F8BD2A00390005F018F9A368C5
:106F30005D19A560F5E710B50A000100A020FFF774
:106F400075FF10BD42884368012A03D0022A03D08E
:106F5000002000E0187870475878FCE73F2210B511
:106F600001650B791D249343402B16D10B1D036142
:106F70000B79303A9B069B0F03700B791A404270D5
:106F80004B7983708C79CB7924021B190024838080
:106F900004640831063005F0E2F8200010BD4368B3
:106FA000186800BA7047000070B5020005000C00B8
:106FB00007200949FDF792FD0C200849084B0A7883
:106FC0005043C5521B18043321CC21C30323013283
:106FD0001A4000200A7070BDE70901002017002048
:106FE000F016002070B5020005000C0007200C49C7
:106FF000FDF774FD00220C210A4B1600042A0DD067
:107000000800013250430C38185AA842F5D1714398
:107010005B185A6821009868904770BD0C20FCE707
:10702000C4090100F016002070B503000C00012017
:1070300000290AD05D8858682A0006F0DEF9002889
:1070400003D1200006F0BDF9281A70BDF0B5002468
:10705000124D85B0019003942C70019803AA0B2166
:107060004C3000F00BFD061E12D043881B19FF2B7D
:1070700011DC2F23671C2B55EC1942884168200036
:1070800005F06DF800227388E2547488E419E4E78F
:10709000280005B0F0BD0020FBE7C046EA1500203F
:1070A00010B5C0B000236A46137003780400294A63
:1070B000002B06D0284A012B03D0284A022B00D0EF
:1070C000274A28490720FDF709FDA3781F22190048
:1070D000914336D1244A012B09D0244A022B06D0F1
:1070E000234A032B03D0234A042B00D0224A2349EE
:1070F0000720FDF7F3FC2000FFF7A8FF037801004D
:10710000002B02D0684606F03DF9200000224C30EA
:107110000F2100F0B3FC041E08D01949684606F0A0
:1071200031F962886168684606F052F96B461B784F
:10713000002B04D06A4613490620FDF7CFFC40B06F
:1071400010BD114A402903D0104A802900D0104AAE
:107150001049CDE7A30B01009F0B0100AB0B010011
:10716000A70B0100EB0B0100B40B0100AF0B0100FA
:10717000B80B0100C20B0100BC0B0100FC0B0100AD
:107180002D0501001A0C0100D60B0100DE0B0100D9
:10719000C90B01000D0C010070B50F260B781D11F5
:1071A000ACB233400C2D13DD0D2D06D14C780B3DC8
:1071B0000D340C2B0ED89BB211E00E2D24D18C78FF
:1071C0004D780E342D02FF346419A4B20325F0E784
:1071D0000125EEE70D2B0DD14B5D01350D339542A9
:1071E00012DC5E19B2420FDB491904804380416012
:1071F000300070BD0E2C07D14E5D4B195B78360206
:107200009B190E33FF33D6E701267642F0E70000E4
:10721000F7B50E0086210388050049008B4234DC57
:1072200047888F4231DC01A90C2B12DC1B010B704B
:107230006B465C1D0C2F13DC0B783B430B70641A00
:107240003F19974215DD03201149FDF747FC002047
:10725000FEBD0D3BD0204B706B4608709C1DE9E7CE
:107260000D23087803430B703B000D3B2370013462
:10727000E5E72200300004F072FF6A88301969687F
:1072800004F076FF68880019E2E701204042DFE75A
:10729000060A010010B542880300042A06D92021FD
:1072A000144B154AFF31154804F0E2FD013A002065
:1072B000032A06D8100002F019F902050C195B68C0
:1072C000187810BD5B681B88180A1B02184380B22F
:1072D000F7E75B680A491B6818021A040A40000EA7
:1072E0001043FF22120213401843EAE71800FFF789
:1072F00056FEE6E72F0A0100520C0100490A010080
:1073000000FFFF0010B542880300042A06D9362189
:10731000144B154AFF31154804F0AAFD013A00202C
:10732000032A06D8100002F0E1F802050C195B6888
:10733000187810BD5B681B88180A1B02184380B2BE
:10734000F7E75B680A491B6818021A040A40000E36
:107350001043FF22120213401843EAE71800FFF718
:107360001EFEE6E72F0A01002D0C0100490A01006C
:1073700000FFFF0010B5054C2388002B02D1FDF75C
:1073800015FB20802088431C238010BDE8150020B9
:107390000B00F0B504338BB005930B880600029305
:1073A0004523049113700392029B059A53490720C9
:1073B000FDF7B6FB04993000FFF7D0FD01900028DF
:1073C0003DD101277578B3780435B764B561002BDA
:1073D00035D001F04BF9029B1038834232DC019C1E
:1073E0000797059B08A85F19029B39005A1BFFF7F6
:1073F000D3FE0690002863DD08AB1B884049E418E3
:10740000A4B208AB5B8822000720FDF767FB08AB3E
:107410005B88099A3B490720FDF782FB300008ABE7
:1074200019004C301C8000F0E7FA071E10D03649D6
:107430000120FDF753FBA023039A019713700198D5
:107440000BB0F0BD8D23039A1370833B0193F6E7D5
:10745000069BED180F2C20D80E2CC2D2072CC0D0C2
:1074600010D8032CBDD0062C22D0079B1C42B8D0CC
:10747000220026490320FDF731FB8223039A137073
:10748000813BE3E70B2CACD00C2CEED108A8FFF726
:1074900059FD33003C331870A3E7172CA1D002D854
:1074A000112CF3D0E1E7232C9BD0272CDDD198E7DA
:1074B00008A8FFF7EFFE002800D092E7B06490E73D
:1074C000002C0FD0029B9D420CD03B78FF2B08D0A4
:1074D0000F490320FDF702FB8F23039A13707B3BB8
:1074E000B4E701356A46029B756112895D1B049BF6
:1074F000356430001A80FFF7D3FDA0E7930A01003E
:10750000A30A0100060F0100BB0A0100D50A010011
:10751000F30A0100F7B50C00260005000021170052
:10752000200054224C3604F035FE300000F030FAD2
:107530002B78A91D23706B7808226370A01D04F0BE
:107540000EFE2800AB884C30A3806B6C0022636475
:10755000AB6C0621A36400F091FA002815D0FFF768
:1075600099FEA36C002B10D100280ED16A4603258A
:107570000633694630001380558000F03DFA00283C
:1075800003D003492800FDF7A9FA2765F7BDC046D7
:10759000770A0100F0B506008DB0FFF781FD4023AA
:1075A000327805AD120113432B70B378002B1CD138
:1075B00004246B70B3881A12AA70EB702100306D2E
:1075C00001F0A0F807000320002F4BD037653E1DC7
:1075D00022002900300004F0C2FD07203B88320061
:1075E0005149FDF79DFA00203CE03F2B00D899E07F
:1075F0006B70B3881A12AA70EB707478002C33D0B9
:107600000420082C2EDC2200B11D06A804F0A7FDE2
:107610002B7823432B70043433004C330022062193
:107620001800019300F02AFA002821D003AF02AB22
:1076300043603B0006C806C300F0C6F8029038005D
:10764000FFF760FE1C2206230290121B2919380046
:107650003B80FFF7DDFD002808D134490330FDF7FA
:107660003DFA03200DB0F0BD0424D5E72418062010
:10767000336C002B44D00C233200181A03AF38802F
:107680003C321378002B0FD102AA7A601C222919F0
:10769000121B38007B800293FFF7BAFD24180028E4
:1076A0000ED123490320DAE77A601C220123121B42
:1076B000291938007B80FFF7ABFD0028F1D0241892
:1076C00000220E21019800F0D9F900281AD002AB4F
:1076D00043603B0006C806C3164B38001B68029384
:1076E000FFF710FE1C2202230290121B29193800FA
:1076F0003B80FFF78DFD2418002803DC0E49D1E7FD
:10770000002805D0336C002B02D0FF232B55013409
:107710001C2C00DC52E7F021084B094A890009487B
:1077200004F0A6FB04209DE7960B01000F0B01005F
:10773000320B0100EC1600205C0B01007F0B0100F6
:10774000770C0100490A0100014B18607047C046E0
:10775000EC160020F7B505000F0001921E00042072
:10776000002D2ED02B78002B2BD0089B1C78032CBF
:1077700027DC032C0CDC982149006143114B2800C5
:10778000591805F00CFE002802D00134E4B2F0E7ED
:107790000C20042C15D098235B0063430949019801
:1077A000CD182A00FF3252780233FF33C9183A70DD
:1077B00004F0D5FC0020FC352B6901343360089BB4
:1077C0001C70FEBD24170020054B06491A688A422A
:1077D00003D102221A60186870470132FAE7C046E6
:1077E00098000020FFFFFF00F0B585B000900E006C
:1077F0000292142300282FD005F0E3FD1423FF2864
:107800002AD8377F002F3FD037001C37380005F0CB
:10781000D8FD0500334B344A9C1C9B180193B31DC3
:10782000FF340393A11EFF392A00380005F0E5FD5F
:10783000002814D1631E71781A788A4200DA0A008F
:107840002100039804F07CFC002808D1009A274905
:107850000630FDF743F90923180005B0F0BD3134B7
:10786000019BFF34A342DDD1042400271D4D982342
:107870005B007B430098E918019305F090FD002818
:1078800004D1009A1A49E3E70424EFE7019B5B5D0A
:10789000002B02D1042C00D13C000137042FE6D18B
:1078A0001423042CD8D01D33FF335C432F193B0025
:1078B0007278A01CFF33FF305A70B11D281804F0F5
:1078C0004EFC0099380005F074FD20003100029B49
:1078D0001130FC37FF303B611C31281805F069FD81
:1078E0000023B9E724170020C1050000A00C010007
:1078F000D20C0100F0B585B007000091019202930F
:107900000420002F36D00B0000241F4D0633AE1C80
:10791000FF360393B11EFF39380005F040FD002803
:107920002AD1009A731E51781A788A4200DA0A0026
:107930003100039804F004FC002802D0029B002BC5
:107940001AD098235B0063430024EC54ED182B00FD
:10795000FC331969019A30001160FF351C6108225F
:10796000210004F017FC06206C743A000749FDF76B
:10797000B5F8200005B0F0BD31360134FF36042CD7
:10798000C8D10C20F6E7C04624170020FA0C0100ED
:1079900010B5002805D1044B044A8021044804F0A6
:1079A00067FA0023036010BD4A0D0100240E010098
:1079B0004D0D010070B5041E05D10C4B0C4A9221EF
:1079C0000C4804F055FA006800280ED0236885683A
:1079D000984205D1256004F097FB2800F4E71300D6
:1079E0009A689042FBD19D60F5E770BD4A0D010099
:1079F000A00D01004D0D010070B506000D0000281E
:107A000005D1A921194B1A4A1A4804F031FA002964
:107A100003D1194B164AAF21F6E70C2004F06AFB9C
:107A200004000320002C12D00C220021200004F0BE
:107A3000B1FB23002A0003CA03C33368002B03D021
:107A40002A881988914204DDA3603460002070BD4B
:107A500003009868002805D001888A42F8DAA060FF
:107A60009C60F3E7A0609C60F1E7C0464A0D01000E
:107A70007B0D01004D0D01001D0D010007B5002813
:107A800006D183210E4B0F4A49000F4804F0F0F94C
:107A9000006801AB0190002A04D01368002B0AD1C2
:107AA000106013001868002808D002888A4205D0A8
:107AB00082681A60F6E79B681360F2E70EBDC04665
:107AC0004A0D0100E60D01004D0D0100F8B504005E
:107AD0000F00002806D14C21124B134AFF311348E6
